:100000000C942D000C9481000C9481000C948100C0
:100010000C9481000C9481000C9481000C9481005C
:100020000C9481000C9481000C9481000C9481004C
:100030000C9481000C9481000C9481000C9481003C
:100040000C9481000C9481000C9481000C9481002C
:100050000C94810000600061800011241FBECFE578
:10006000D8E0DEBFCDBFE4E5F0E040E017C0B591D9
:10007000A59135912591059107FD0CC0959185912C
:10008000EF01F92FE82F05900D92A217B307D9F7CA
:10009000FE0104C01D92A217B307E1F7E935F4078A
:0E00A00031F70E946A000C945500F894FFCFCF
:1000AE00CF93C82F84EC86BF0E947B0080936000A4
:1000BE00883A39F4C3B984E886BF0E947B008093E6
:0600CE006000CF910895CF
:1000D4008FEF8ABB83E00E94730082E00E94570086
:0200E400FFCF4C
:1000E60091B19C7F91B994E690B9880F82B9089531
:0C00F60006B607FEFDCF81B1887F08959B
:040102000C94000059
:00000001FF
