:100000000C942D000C9496000C9496000C94960081
:100010000C9496000C9496000C9496000C94960008
:100020000C9496000C9496000C9496000C949600F8
:100030000C9496000C9496000C9496000C949600E8
:100040000C9496000C9496000C9496000C949600D8
:100050000C94960000600061800011241FBECFE563
:10006000D8E0DEBFCDBFE4E5F0E040E017C0B591D9
:10007000A59135912591059107FD0CC0959185912C
:10008000EF01F92FE82F05900D92A217B307D9F7CA
:10009000FE0104C01D92A217B307E1F7E935F4078A
:0E00A00031F70E947E000C945500F894FFCFBB
:1000AE00CF93C82F84EA86BF0E9490008093600091
:1000BE008830B1F4C3B984E886BF86BF0E94900031
:1000CE0080936000803471F484EC86BF0E949000AF
:1000DE0080936000803541F483B194E996BF05C0EA
:0E00EE0080E003C080E001C080E0CF91089563
:1000FC008FEF8ABB87E00E94880087E00E94570040
:04010C008BBBFFCFDB
:1001100091B19C7F91B994E690B9880F82B9089506
:0C01200006B607FEFDCF81B1887F089570
:04012C000C9400002F
:00000001FF
